:100000000C9453070C947B070C947B070C947B0790
:100010000C947B070C947B070C941B1B0C947B07A4
:100020000C947B070C947B070C947B070C947B0748
:100030000C947B070C94D81B0C948D180C943E19CF
:100040000C947B070C947B070C947B070C947B0728
:100050000C94AC1A0C947B070C947B070C947B07D4
:100060000C94D11A0C947B070C94661B0C94401BC7
:100070000C947B070C94621A0C947B070C947B07FE
:100080000C947B070C947B070C94F61A0C94871A3B
:100090000C94FE190C94B21B0C948C1B0C947B07D3
:1000A00020FF01020000000000000000000000002E
:1000B00000000000000000F8F80000000000001B35
:1000C0001B00000000003C3C003C3C000000000025
:1000D000000000000040F8F8F8F8400000021F1F80
:1000E0001F1F0200006090F8F8106000000C103F25
:1000F0003F110E0000307848F038180000181C0F2F
:10010000121E0C00000070F888F87000000E1F111D
:100110000E1F13000000003C3C0000000000000027
:10012000000000000000C0F0380C04000000071FB1
:10013000386040000000040C38F0C000000040604F
:10014000381F07000018A0F8F8A0180000030003EB
:1001500003000300000000E0E00000000001010FC8
:100160000F01010000000000000000000000004836
:1001700078380000000000000000000000010101CC
:100180000101010000000000000000000000001854
:100190001800000000000080E07C1C0000707C0F54
:1001A0000300000000F0F80808F8F000000F1F102E
:1001B000101F0F00002030F8F80000000010101F82
:1001C0001F1010000030380888F8700000181C1646
:1001D000131110000030388888F87000000C1C10D3
:1001E000101F0F00000080C0F0F800000007070497
:1001F0001F1F040000F8F84848C88800000C1C10B5
:10020000101F0F0000E0F09888B83000000F1F109A
:10021000101F0F0000383888E87818000000001F11
:100220001F0000000070F88888F87000000E1F1191
:10023000111F0E0000F0F80808F8F000000C1D1166
:10024000190F070000000060600000000000000CB3
:100250000C000000000000006060000000000024AE
:100260003C1C0000000080C060301000000103064C
:100270000C1810000080808080808000000404043E
:100280000404040000103060C08000000010180C4E
:100290000603010000303888C87830000000001BD9
:1002A0001B00000000E0F0D8E838F00000070F1B4A
:1002B0001714170000F0F81818F8F000001F1F02BC
:1002C000021F1F0000F8F88888F83000001F1F1078
:1002D000101F0F0000F0F80808383000000F1F1042
:1002E000101C0C0000F8F80818F0E000001F1F10A8
:1002F000180F070000F8F88888880800001F1F10F2
:100300001010100000F8F88888880800001F1F00EF
:100310000000000000F0F80808383000000F1F103F
:10032000111F0F0000F8F88080F8F800001F1F0070
:10033000001F1F00000808F8F80808000010101F30
:100340001F1010000000000000F8F800000C1C1046
:10035000180F070000F8F8E030180800001F1F030E
:10036000071C180000F8F80000000000001F1F1014
:100370001010100000F8F0C0C0F0F800001F1F00BF
:10038000001F1F0000F8F8E000F8F800001F1F0031
:10039000071F1F0000F0F80808F8F000000F1F10FA
:1003A000101F0F0000F8F80808F8F000001F1F01E8
:1003B0000101000000F0F80808F8F000000F1F121B
:1003C000143F6F0000F8F88888F87000001F1F00C5
:1003D000011F1E00003078C888383000000C1C1146
:1003E000131E0C00000808F8F80808000000001FA1
:1003F0001F00000000F8F80000F8F800000F1F10C0
:10040000101F0F0000F8F80000F8F80000030F1CA0
:100410001C0F030000F8F80000F8F800000F1F0F91
:100420000F1F0F00001878E0E078180000181E0772
:10043000071E18000038F8C0C0F838000000001F80
:100440001F00000000080888E878180000181E1730
:10045000111010000000FCFC0404040000007F7F69
:1004600040404000001C7CE08000000000000003D1
:100470000F7C70000000040404FCFC0000004040FD
:10048000407F7F0000080C06060C080000000000FA
:10049000000000000000000000000000006060603C
:1004A000606060000000040C1810000000000000F4
:1004B000000000000080C04040C08000000C1E1200
:1004C000111F1F0000F8F84040C08000001F1F10DF
:1004D000101F0F000080C04040C08000000F1F10A0
:1004E000101808000080C04040F8F800000F1F10EE
:1004F000101F1F000080C04040C08000000F1F126E
:10050000121B0B00008080F0F89890000000001F84
:100510001F0000000080C040C080C00000337F5436
:100520005773200000F8F84040C08000001F1F00F3
:10053000001F1F00000000D8D80000000000001FAE
:100540001F0000000000000000D8D800000020605C
:10055000407F3F0000F8F80080C00000001F1F032C
:10056000070C1800000000F8F80000000000001F51
:100570001F00000000C0C080C0C08000001F1F0F0F
:100580000F1F1F0000C0C04040C08000001F1F00A0
:10059000001F1F000080C04040C08000000F1F10DF
:1005A000101F0F0000C0C04040C08000007F7F10BF
:1005B000101F0F000080C04040C0C000000F1F107F
:1005C000107F7F0000C0C04040C08000001F1F009F
:1005D000000101000080C04040C0800000081913E5
:1005E000161C0800004040F8F84040000000000FD2
:1005F0001F10100000C0C00000C0C000000F1F107E
:10060000101F1F0000C0C00000C0C0000001071E76
:100610001E07010000C0C00000C0C000000F1F0F77
:100620000F1F0F0000C0C00000C0C00000181D0751
:10063000071D180000C0C00000C0C0000020634FAC
:100640007C3F03000040404040C0C00000181C1622
:1006500013111000000000F8FC0404000000013F2A
:100660007E404000000000FCFC0000000000007F15
:100670007F00000000000404FCF80000000040407F
:100680007E3F010000380C1818301C0000000000EC
:10069000000000000000000000000000000000005A
:1006A000000000000000000000000000000000004A
:1006B000000000000000000000000000000000003A
:1006C000000000000000000000000000000000002A
:1008B00000000000000000D8D80000000000001F69
:1008C0001F000000008040E0E040C000000F103F2B
:1008D0003F1018000000E0F01030200000091F1F3A
:1008E000091810000020E0C040E0200000040702CA
:1008F00003070400005870E0E07058000002021F77
:100900001F02020000000078780000000000001EB6
:100910001E0000000088DC7464CC880000081913F5
:10092000171D080000000C0C000C0C00000000005B
:100930000000000000F8FCF414FCF800000F1F1782
:10094000141F0F00000068FC94FCF8000000020275
:100950000202020000000080C0C0C0000002070FB9
:100960001F1D18000000000000000000000303032A
:10097000031F1F0000000000000000000000010134
:100980000101000000F8FCF494FCF800000F1F17B0
:10099000101F0F0000000404040404000000000005
:1009A000000000000000183C243C1800000000007B
:1009B0000000000000000080800000000012121FF4
:1009C0001F121200000088CC643C180000000101D6
:1009D00001010100000088AC24FCD80000000001E7
:1009E00001010000000010180C04000000000000CD
:1009F000000000000080800000808000007F7F10E9
:100A0000181F1F0000F0F8F808F8F8000000017F38
:100A1000407F7F00000000C0C00000000000000018
:100A20000000000000000000000000000000004086
:100A300070300000000010F8F80000000000000115
:100A4000010000000000307848783000000001010B
:100A5000010101000040C0C0800000000010181D0E
:100A60000F0702000010F8F8C0F0180000180E037D
:100A70000D1E1F000010F8F8C0F0180000180E033B
:100A80001B1D160000A8F8F0C0701800000C06032B
:100A90000D1F1F000000B0B00000000000307F4FAD
:100AA0004070300000E0F23634F0E000001F1F021A
:100AB000021F1F0000E0F03436F2E000001F1F02AA
:100AC000021F1F0000E0F43636F4E000001F1F0292
:100AD000021F1F0000E4F23634F2E000001F1F0284
:100AE000021F1F0000E6F63030F6E600001F1F026E
:100AF000021F1F0000C0E46A6AE4C000001F1F025A
:100B0000021F1F0000F0F808F8F88808001F1F01F6
:100B10001F1F101000F0F80808383000000F5F7039
:100B2000301C0C0000F0F21614101000001F1F11F2
:100B30001111100000F0F01416121000001F1F1108
:100B40001111100000F0F41616141000001F1F11F0
:100B50001111100000F6F61010161600001F1F11DC
:100B600011111000001012F6F41010000010101FE8
:100B70001F101000001010F4F61210000010101FCB
:100B80001F101000001014F6F61410000010101FB3
:100B90001F101000001616F0F01616000010101F9F
:100BA0001F1010000080F8F88898F0E000001F1F68
:100BB00010180F0700F4F2E604F2F000001F1F0007
:100BC000071F1F0000E0F21614F0E000000F1F10D6
:100BD000101F0F0000E0F01416F2E000000F1F10CD
:100BE000101F0F0000E0F41616F4E000000F1F10B5
:100BF000101F0F0000E4F21614F2E000000F1F10A7
:100C0000101F0F0000E6F61010F6E600000F1F1090
:100C1000101F0F000040C0800080C04000180C076B
:100C200003070C1800F0F808F8F8F600006F1F1F13
:100C3000101F0F0000F0F20604F0F000000F1F106C
:100C4000101F0F0000F0F00406F2F000000F1F105C
:100C5000101F0F0000F0F40606F4F000000F1F1044
:100C6000101F0F0000F6F60000F6F600000F1F1030
:100C7000101F0F000070F08486F270000000031F48
:100C80001F03000000F8F82020E0C000001F1F0430
:100C9000040703000000F0F888F8700000101F1F20
:100CA000101F0F000080C85850C08000000C1E1399
:100CB000111F1F000080C05058C88000000C1E1378
:100CC000111F1F000080D05858D08000000C1E1348
:100CD000111F1F000090C85850C88000000C1E1340
:100CE000111F1F000098D84040D89800000C1E1318
:100CF000111F1F000080C85454C88000000C1E1330
:100D0000111F1F000080C040C0C04080000C1E1199
:100D10001F1F1A0B0080C04040C08000000F5F7092
:100D2000301808000080C85850C08000000F1F1203
:100D3000121B0B000080C05058C88000000F1F120B
:100D4000121B0B000080D05858D08000000F1F12DB
:100D5000121B0B000098D84040D89800000F1F12BB
:100D6000121B0B0000000008D8D00000000000009B
:100D70001F1F0000000000D0D80800000000001F66
:100D80001F000000000010D8D81000000000001F55
:100D90001F000000001818C0C01818000000001F35
:100DA0001F00000000349C98BCE4C000000F1F101E
:100DB000101F0F0000D0C85850C88000001F1F002F
:100DC000001F1F000080C85850C08000000F1F1077
:100DD000101F0F000080C05058C88000000F1F1067
:100DE000101F0F000080D05858D08000000F1F1037
:100DF000101F0F000090C85850C88000000F1F102F
:100E0000101F0F000098D84040D89800000F1F1006
:100E1000101F0F0000000060600000000003031BB3
:100E20001B0303000080C040C0E09000006F1F164D
:100E3000111F0F0000C0C81810C0C000000F1F1005
:100E4000101F1F0000C0C01018C8C000000F1F10E6
:100E5000101F1F0000C0D01818D0C000000F1F10B6
:100E6000101F1F0000D8D80000D8D800000F1F1096
:100E7000101F1F0000C0C01018C8C0000021637EF2
:100E80003E0F010000F8F84040C08000007F7F1056
:100E9000101F0F0000D8D80000D8D8000021637EB2
:100EA0003E0F01002D1C11241FBECFEFCDBFDFE38D
:100EB000DEBF18E2A0E0B8E2E5E3FCE402C0059082
:100EC0000D92A630B107D9F72BE2A6E0B8E201C037
:100ED0001D92A938B207E1F717E0C3E5D7E004C0D7
:100EE0002197FE010E946823C235D107C9F70E94ED
:100EF000291D0C94D5240C94000080E008956623ED
:100F000029F06A3019F0862F90E008958FEF9FEF57
:100F100008951F93CF93DF93CDB7DEB72597CDBF4D
:100F2000DEBF1C8221E02B8389839A83E091212AF2
:100F3000F091222A11891D82A091212AB091222AA2
:100F4000E091252AF091262A9E012F5F3F4F50966F
:100F50004C916FE081E29AE209958D818F5F8D83DC
:100F6000811750F32596CDBFDEBFDF91CF911F9142
:100F700008959B01DC011896ED91FC9141E067E139
:100F80000994EF92FF920F931F93CF93DF937C010D
:100F9000EB018B01040F151FC017D10759F0D701C2
:100FA000ED91FC910190F081E02D6881C7010995D8
:100FB0008993F2CFDF91CF911F910F91FF90EF9026
:100FC00008950F931F93CF93DF93EC018B018091D2
:100FD000C008E881F9810190F081E02D86FD13C001
:100FE000612FCE010995182FE881F9810190F081D8
:100FF000E02D602FCE010995082FC801DF91CF9118
:101000001F910F910895CE010995082FE881F9816C
:101010000190F081E02D612FCE010995182FEDCFC1
:1010200000006093C4088091C30887FFFCCF8091C3
:10103000C40808958F929F92AF92BF92CF92DF9291
:10104000EF92FF920F931F93CF93DF93FC01808564
:10105000882319F081FF0EC07894DF91CF911F9102
:101060000F91FF90EF90DF90CF90BF90AF909F9047
:101070008F90089580FFF1CF82849384A484B584F7
:10108000C12CD12C760110E09401A501B601C70155
:10109000A0E00E945C2399F1217030E040E050E034
:1010A00060E070E080E090E00E945C23D9F0D0E046
:1010B000C0E0103370F4C12FC695C695C69580E286
:1010C000C89FE0011124C05FDB4F812F8770C80FDC
:1010D000D11DCF01810F911DDC0152968C91988119
:1010E000892B88839401A501B601C70101E00E9404
:1010F000412349015A016B017C011F5FC5CF8684E2
:101100009784A088B188C12CD12C760110E294017B
:10111000A501B601C701A0E00E945C2309F49DCFA0
:10112000217030E040E050E060E070E080E090E06E
:101130000E945C23D9F0D0E0C0E0103370F4C12FDE
:10114000C695C695C695B0E2CB9FE0011124C05F5D
:10115000DB4F812F8770C80FD11DCF01810F911DEB
:10116000DC0152968C919881892B88839401A5018A
:10117000B601C70101E00E94412349015A016B01F8
:101180007C011F5FC4CFFC016F3F710581F1808539
:1011900081FD2DC0603271055CF581E090E002C0F8
:1011A000880F991F6A95E2F780959095092E000C9B
:1011B000AA0BBB0B428553856485758584239523D3
:1011C000A623B72382879387A487B58782859385D3
:1011D000A485B585892B8A2B8B2B49F48685978529
:1011E000A089B189892B8A2B8B2B09F4108608954D
:1011F0006052710981E090E002C0880F991F6A95E2
:10120000E2F780959095092E000CAA0BBB0B468542
:1012100057856089718984239523A623B723868700
:101220009787A08BB18BD2CFFC016F3F7105E9F19D
:10123000603371051CF082E08087089580858160AD
:10124000808760327105C4F481E090E002C0880FAD
:10125000991F6A95E2F7092E000CAA0BBB0B428579
:10126000538564857585842B952BA62BB72B828798
:101270009387A487B58708956052710981E090E053
:1012800002C0880F991F6A95E2F7092E000CAA0B7D
:10129000BB0B4685578560897189842B952BA62BBE
:1012A000B72B86879787A08BB18B0895E0ECF8E089
:1012B00020812E7F2083FC0117820895E0ECF8E066
:1012C00082818E7F82830895E0ECF8E082818160E4
:1012D00082830895DC011A96ED91FC9130E020E0C4
:1012E0000994DC011696ED91FC9130E020E040E09D
:1012F00069E10994DC011696ED91FC9130E020E063
:1013000040E068E109949A01DC011696ED91FC91A8
:10131000462F67E10994EF92FF920F931F93CF93AB
:10132000DF931F92CDB7DEB77C018B01D8016C91A2
:10133000673129F150F46531A0F40F90DF91CF911E
:101340001F910F91FF90EF9008956A3118F16E3F51
:10135000A1F7F8014181498369E2C7010E946A0946
:101360000BC0F80141814983D7011696ED91FC919C
:1013700030E020E0C70109950E5F1F4FD7CFF8017D
:1013800081818983AE014F5F5F4F61E0C7010E9499
:101390008309F2CF0F5F1F4FD7011696ED91FC9195
:1013A00030E020E040E0C7010995C0CF462FDC01C6
:1013B0001696ED91FC9130E020E066E10994462F0D
:1013C000DC011696ED91FC9130E020E065E1099496
:1013D000EF92FF920F931F93CF93DF93EC01042FB3
:1013E00079016D3009F446C050F46B30C9F16930B1
:1013F00009F49FC06A3009F465C080E046C06E30D1
:1014000009F452C06F3099F70E947A09F7011381ED
:10141000110F110F110F6C89160F60E4CE010E949D
:10142000DF09612F62956F706061CE010E94DF0954
:10143000612F6F70CE010E94D609F7016481606B45
:10144000CE010E94D609F701408151816281660F69
:10145000660F660FCE010E9483090150A1F72EC0CE
:1014600069E27AE8442311F064E27AE8CE010E944E
:101470008B090AC0411110C06DE17AE80E948B0906
:10148000E881F98182898C8B81E0DF91CF911F9176
:101490000F91FF90EF90089566E17AE80E948B0922
:1014A000E881F9818389EFCF0E947A0961E8CE0152
:1014B0000E94DF09602FCE010E94D609CE010E9452
:1014C0007109E2CFEA85FB8530E020E040E068E288
:1014D000CE010995EE81FF8130E020E040E064E13B
:1014E000CE01099541E06BE4CE010E946A09E881D2
:1014F000F981448169E2CE010E946A0940E06BE40F
:10150000CE010E946A09E881F981448169E2CE0135
:101510000E946A0941E06BE4CE010E946A09E881F9
:10152000F981458169E2CE010E946A096EE27AE89A
:101530009DCF83E69AE8888399831C8AA5CFDC0136
:101540001896ED91FC9130E020E040E069E10994CB
:10155000DC011896ED91FC9130E020E040E068E17C
:101560000994CF93DF931F92CDB7DEB76983BE0195
:101570006F5F7F4F0E94B9070F90DF91CF91089561
:10158000EF92FF921F93CF93DF93EC01162F7A0116
:101590000E94A80A60E4CE010E94B10AE885F9859C
:1015A0009701412F67E1CE010995CE01DF91CF91DF
:1015B0001F91FF90EF900C949F0AEF92FF921F9360
:1015C000CF93DF93EC01142F7901663181F138F468
:1015D000643109F44BC0653179F080E022C0683194
:1015E000C9F150F16931C9F78091DB29882391F164
:1015F000CE010E949F0A2EC08091DB29882319F01A
:10160000CE010E949F0ACE010E94A80A60E0CE018E
:101610000E94B10A612FCE010E94B10A81E080933D
:10162000DB29DF91CF911F91FF90EF900895642FF8
:101630000E94B10A81E0F5CF8091DB29882319F05F
:10164000CE010E949F0AA701193138F4612FCE0103
:101650000E94C00A1092DB29EDCF68E1CE010E9402
:10166000C00A185188E1E80EF11CEDCF8E898F3F3A
:1016700011F488E78E8BE885F9859701412F64E1A5
:10168000CE01DF91CF911F91FF90EF900994CF93FE
:10169000DF93EC01A889B989FD01349131969491C9
:1016A000319684911396FD01A4916317A8F19617C2
:1016B00098F1631B770B8A9FE02D1124E69FC001F0
:1016C000E79F900D1124280F392F311D83E0220F41
:1016D000331F8A95E1F7C9010496DA01245F3F4F71
:1016E000E889F989E80FF91FE491ED9301968217D3
:1016F0009307B1F78D89882361F0FA019A01285F79
:101700003F4F8191DF01119780958C932E173F07F2
:10171000C1F7DF91CF910895FA01CA01089611929D
:10172000E817F907E1F7E6CF4F925F926F927F9249
:101730008F929F92AF92BF92CF92DF92EF92FF92E1
:101740000F931F93CF93DF93CDB7DEB72D97CDBF08
:10175000DEBF7C01C62ED42EB22EDC0150968D91B8
:101760009C91FC013296149131960491512E560EA3
:10177000040F81E0860F581608F411E0712CFE0169
:1017800031964F0144244394672CAC2C262DA401A0
:101790006B2DC7010E94470BAC86DD864B86898680
:1017A0009A86D7011496ED91FC919E01275F3F4FD9
:1017B00041E06FE0C70109956394A394A51430F349
:1017C000D394710ED01600F32D96CDBFDEBFDF91FE
:1017D000CF911F910F91FF90EF90DF90CF90BF902E
:1017E000AF909F908F907F906F905F904F900895F3
:1017F000CF92DF92EF92FF920F931F93CF93DF93DD
:101800008C01C62EDC015096ED91FC913296C4916C
:10181000FC01108E7A01D0E0D12CD7016D917D01B1
:10182000D8011296ED91FC91C80109958F3F980758
:1018300069F08E3FEFEF9E0781F3282F4C2D6D2D21
:10184000C8010E94940BDC0EDF5FE7CF8D2FDF9184
:10185000CF911F910F91FF90EF90DF90CF9008955F
:101860002FE737E0FC01228333830C94F80B1F939E
:10187000CF93DF93EC01EC89FD8949AD6A3059F4CF
:101880003396E491E40FE9AF18AE81E090E0DF9188
:10189000CF911F910895262F3296149168AD04962A
:1018A0000E94940BE8ADE10FE8AFEFCF0F9391E00A
:1018B0009093DA291092D9296093D7297093D82967
:1018C0004093D6292093D5291092D4291092D32958
:1018D0000093D229880F8093D12923E030E044E09F
:1018E00050E08091D629882341F02093CF2930936E
:1018F000D0298091D1298E7F0BC08091D529882352
:1019000051F04093CF295093D0298091D129816003
:101910008093A70808C08091D629811104C08091C6
:10192000D529882311F38091D9298823E1F3809167
:10193000D9298330B1F28091D529882321F0809173
:10194000D3290F9108958091D929823031F08530C3
:1019500031F0813031F480E0F4CF81E0F2CF83E0E8
:10196000F0CF84E0EECFE0EAF8E0918590669187D1
:1019700022E030E02093CF293093D0298093C129F1
:101980001092C029089581E08093C0291092C12946
:1019900093E09093AA089091AB0891FF10C0109229
:1019A000CD29E091BE29F091BF2909958093CC29DA
:1019B00085E090E08093CF299093D02908951092EC
:1019C000CE298093CB2986E090E0F4CF8F929F922E
:1019D000AF92BF92CF92DF92EF92FF92CF93DF93BD
:1019E00060342DE0720723E08207910508F44EC0B1
:1019F000611525E372072CE08207910508F43FC0CA
:101A000060387F448241910508F040C0C8E7D0E0CB
:101A100020E432E44FE050E08090022890900328C8
:101A2000A0900428B0900528C501B4010E94FA22B4
:101A300069017A018AE0C81AD108E108F108DE01DB
:101A4000A50194010E94E72220E03AEC4AE95BE319
:101A50000E94FA22C21AD30AE40AF50AF694E7941D
:101A6000D794C794C092A608DF91CF91FF90EF90D2
:101A7000DF90CF90BF90AF909F908F900895CCE271
:101A8000D1E020E83AE146E050E0C6CFC8EED3E02E
:101A900020EA36E841E050E0BFCFCB01BA010C9418
:101AA000E60C6093BC297093BD2908956093BA2910
:101AB0007093BB290895E091BC29F091BD2930971E
:101AC00041F01092B9291092B82909958091B8294E
:101AD000089580E00895E091BA29F091BB293097EC
:101AE00059F03091B7292091B629321728F0109279
:101AF000B7298093B629099408950895E091B729EC
:101B00008091B629E81730F4F0E0EA5CF64D808168
:101B100090E008958FEF9FEF08959091B7298091FD
:101B2000B6292FEF3FEF981748F4E92FF0E0EA5C71
:101B3000F64D208130E09F5F9093B729C901089549
:101B40008091B6299091B729891B990B0895CF925E
:101B5000DF92EF92FF920F931F93CF93DF937C015D
:101B60008A01EB016B01C40ED51ECC15DD0551F0C9
:101B70006991D701ED91FC910190F081E02DC701B1
:101B80000995F3CFC801DF91CF911F910F91FF907D
:101B9000EF90DF90CF9008952091B82927FF08C0DB
:101BA00021E030E0FC012283338390E080E008955F
:101BB0008091B929E82FF0E0EA54F74D60838F5FF8
:101BC0008093B9298093B82981E090E00895DC01E1
:101BD000ED91FC91008CF18DE02D61E009940F9363
:101BE0008091CF299091D0290197A1F48091DA2991
:101BF000811112C0062F20E04091B82966EB78E2EF
:101C00008091B5280E94560C1092B9291092B829DB
:101C10000F91089580E0F8CF81E0F6CF6093B5286A
:101C20001092B9291092B8290895CF93DF93D62F37
:101C3000C42F682F83E09AE20E940E0E6D2F83E07E
:101C40009AE20E94CC0D6C2F83E09AE20E94CC0DA8
:101C500083E09AE20E94E70D90E080E0DF91CF916F
:101C600008950F931F93CF93DF93EB01855895470A
:101C7000FC01018140E06AE18091F5290E94150E86
:101C800041E01C161D060CF040E06FE08091F52944
:101C90000E94150E1091F5294C2F62E1812F0E94B0
:101CA000150E4D2F63E1812F0E94150E4C2F64E11C
:101CB000812F0E94150E4D2F65E1812F0E94150E78
:101CC000402F6AE18091F5290E94150E90E080E096
:101CD000DF91CF911F910F910895DC01ED91FC915F
:101CE000048CF58DE02D21E009940F9386E399E2B1
:101CF0008093C2299093C3298091CF299091D029B4
:101D00000197C1F48091DA29811116C0FA01413896
:101D1000510510F0E0E8F0E0022F862F2E2F40E072
:101D200070E060E00E94560C1092B7298093B629AB
:101D30000F91089580E0F8CF81E0F6CFE0EAF8E077
:101D40001382168281E08583148611861092CF2932
:101D50001092D02908951092B7291092B6291092A6
:101D6000B9291092B8298091CF299091D029892B37
:101D7000D9F482E090E08093CF299093D0291092FB
:101D8000CE291092CD291092C0291092C12910920B
:101D9000B4281092CB29660F6093AC0881EE809333
:101DA000A90881E08093A3088BE59DE08093BE297C
:101DB0009093BF2986EB98E28093C4299093C5291C
:101DC0008BE69DE08093C9299093CA2986E399E226
:101DD0008093C6299093C72980E88093C8290895E5
:101DE0004F925F926F927F928F929F92AF92BF922B
:101DF000CF92DF92EF92FF92CF93DF9300D000D08B
:101E0000CDB7DEB75C01452B41F01092B22810929D
:101E1000B3281092B0281092B1286A197B09072EB6
:101E2000000C880B990B0E94AB212B013C016091A7
:101E3000B2287091B328072E000C880B990B0E94D2
:101E4000AB216B017C016091B0287091B1286A19B7
:101E50007B09072E000C880B990B0E94AB2169832C
:101E60007A838B839C83A092B028B092B1282DEC0A
:101E70003CEC4CE45FE3C301B2010E940A224B0137
:101E80005C0120E030E040E05FE3C701B6010E9462
:101E90000A229B01AC01C501B4010E946F234B01D2
:101EA0005C012AE037ED43EA5CE369817A818B814A
:101EB0009C810E940A229B01AC01C501B4010E94D1
:101EC0006F234B015C0120E030E048EC52E40E94BB
:101ED000832487FF2CC020E030E0A901C501B401B4
:101EE0000E94A421181654F5A3019201C701B6015E
:101EF0000E946F230E944D246093B2287093B328F0
:101F0000C501B4010E944D24CB012496CDBFDEBF94
:101F1000DF91CF91FF90EF90DF90CF90BF90AF9087
:101F20009F908F907F906F905F904F900895812C3D
:101F3000912C88ECA82E82E4B82EE2CF812C912C33
:101F40005401DECFCF92DF92EF92FF920F931F9357
:101F5000CF93DF936C01EB017B01E40EF51E10E0E3
:101F600000E0CE15DF0561F06991D601ED91FC919D
:101F70000190F081E02DC6010995080F191FF1CFDE
:101F8000C801DF91CF911F910F91FF90EF90DF90EB
:101F9000CF900895CF93DF9390E0FC01E450F64793
:101FA00020812F3F71F0FC01EE51F647A08130E215
:101FB000A39FD0011124BC5F6130710529F41196F3
:101FC0002C93DF91CF91089588539647EC01E881D7
:101FD000EF3F89F0CD014096E80FF92FF11D9FB733
:101FE000F89412962C9380816230710539F48860E0
:101FF00080839FBFE6CFF0E0E0E0F1CF877FF8CFAE
:102000008B3210F40C94CA0F08951092B7291092D5
:10201000B6291092B9291092B8298091CF299091B0
:10202000D029892B41F562E070E086E10E94CA0F59
:1020300062E070E087E10E94CA0F8091E30580931F
:10204000E30581E090E08093CF299093D02910920E
:10205000D3291092D4291092DA291092D92981EC2F
:102060008093A30860EA76E881E090E00E94E60CA5
:1020700081E08093A5080895CF93DF93EC01683148
:1020800089F130F4643199F0673151F080E005C096
:102090006931B9F16032D1F781E0DF91CF910895D4
:1020A00050E0B90183E09AE20E94A70DF5CF8C853C
:1020B0009D85AE85BF85892B8A2B8B2B71F4E8819A
:1020C000F981A585B0E020EA36E841E050E00E94C1
:1020D000E7226C877D878E879F8783E09AE20E9444
:1020E0000510DACF6C857D858E859F850E94E60C74
:1020F0006E8970E07595679583E09AE20E940E0EF6
:10210000CBCF83E09AE20E94E70DC6CF282F30E0C4
:10211000F901E255F647E081EE2309F1E13021F0C3
:10212000F0F0E63098F008954091010A28533647C0
:10213000F90120812C5F81E090E001C0880F2A9591
:10214000EAF7809584238093010A089580E1E89F4F
:10215000F0011124E05AF54F81818F7E818308952B
:10216000FF920F931F93CF93DF93082F10E0F80196
:10217000E450F647F0809FEFF916A1F0EB018B32A7
:1021800010F40E948610F801EE51F647E08180E2DB
:10219000E89FF0011124FC5F80818F2179F0209766
:1021A00039F4F682DF91CF911F910F91FF9008953E
:1021B000229711F4F782F6CFF582F4CFD801A85315
:1021C000B6478C91309771F08F3F61F07096E80FB1
:1021D000F11D9FB7F8948081CD2B39F4877F8083E0
:1021E0009FBFE0CFF0E0E0E0F4CF8860F8CF8B3223
:1021F00010F40C94B0100895CF92DF92EF92FF92FA
:102200000F931F93CF931816190614F081E090E0F6
:102210008536910514F084E690E064E670E0681B72
:10222000790B072E000C880B990B0E94AB2129E239
:102230003CE54FE85DE30E940A2220E030E040E404
:1022400050E40E946F2320E030E04AE754E40E940B
:102250000A2220E030E040EC50E40E94DB2320E042
:1022600030E040E85FE30E946E230E944D246B0142
:10227000C091F529462F66E18C2F0E94150E0D2D79
:102280001127402F67E18C2F0E94150E4C2D68E11D
:102290008C2F0E94150E402F69E18C2F0E94150E85
:1022A00068ED7FEF8FEF9FEF0E94310E70E060E0EE
:1022B0008AE00E94B01061E070E089E0CF911F9148
:1022C0000F91FF90EF90DF90CF900C94B01070E0E2
:1022D00060E090E080E00E94310E61E070E08AE012
:1022E0000C94B0100F931F93CF93082F10E0F801B8
:1022F000E450F647C081CF3FB9F08B3210F40E9412
:102300008610F801EE51F647E08180E2E89FF00187
:102310001124FC5F8085C82381E090E009F480E00F
:10232000CF911F910F91089580E090E0F9CFCF9366
:10233000DF938FB7F8942091AC283091AD2840916D
:10234000AE285091AF28E091BA0A9091B60A90FF5A
:1023500006C02F5F3F4F4F4F5F4FE091BA0A8FBFCC
:10236000A091AA28B091AB28C091A828D091A92803
:102370000E94E722EC9F9001ED9F300D1124620F27
:10238000731F811D911DDF91CF9108958F929F92B0
:10239000AF92BF92CF92DF92EF92FF924B015C011E
:1023A0000E9497116B017C01A8EEB3E0A501940196
:1023B0000E94E722C60ED71EE81EF91EC616D706D3
:1023C000E806F90618F40E949711F8CF0E949711B9
:1023D0006C157D058E059F05C8F3FF90EF90DF908B
:1023E000CF90BF90AF909F908F9008950F931F93C1
:1023F000CF93DF938C016C32C0F46A3208F040C096
:10240000683269F1693209F44BC080E06034C8F188
:102410006F73F801E60FF11D868D8F3F89F16031F2
:1024200008F058C0642F70E017C06D3209F43FC047
:1024300060F384EB860F823040F7C62FCF73C00F56
:10244000D12FD11D8E8D61E070E041113EC00E9400
:10245000001070E060E08E8D0E94F71011C0025EE7
:102460001F4FD0E0F80181918F018F3F31F061E083
:1024700070E0D03158F40E940010DF5FD63191F740
:1024800081E0DF91CF911F910F9108950E9400107C
:1024900061E070E0F801319780810E94F710EDCF84
:1024A000642F70E090E080E00E94C611E9CF85E0E3
:1024B00090E0433010F082E090E0880F991F880F81
:1024C000991F05970197F1F7DBCF0E94001061E09B
:1024D00070E0C1CF30E020E08B3218F40E9472111E
:1024E0009C0191E0232B09F490E0F801918FC8CF73
:1024F000AF92BF92CF92DF92EF92FF920F931F9312
:10250000CF93DF936C017B018B01040F151FEB014F
:102510005E01AE18BF08C017D10759F06991D60106
:10252000ED91FC910190F081E02DC6010995892B78
:1025300079F7C501DF91CF911F910F91FF90EF9037
:10254000DF90CF90BF90AF900895089590E080E025
:102550000895EF92FF920F931F93CF93DF93C82FAD
:10256000D0E0A09695E0CC0FDD1F9A95E1F7E984C5
:10257000082F000F000F000FFF24F39410E08E2DA2
:102580008F2189F0E02FE10FF0E0EE0FFF1FE15DFA
:10259000F74D80819181892B31F00190F081E02D00
:1025A00090E080E009951F5FFF0C183041F7E98645
:1025B000DF91CF911F910F91FF90EF900895FC0153
:1025C000A485B58511968C91119781FD0FC09C91C2
:1025D00082898F5F8F732389281749F0A289AE0FF4
:1025E000BF2FB11D59969C93828B08958C910895AD
:1025F000FC0154894589252F30E0842F90E0821B0F
:10260000930B541710F0CF96089501970895FC018D
:1026100092898389981761F0A389AE0FBF2FB11DEE
:1026200059968C9193899F5F9F73938B90E0089547
:102630008FEF9FEF0895FC0192898389981731F0FD
:102640008389E80FF11D818D90E008958FEF9FEF52
:102650000895FC0192892389892F90E0805C9F4F27
:10266000821B91098F7399270895CF93DF93EC0113
:10267000E881F9810680F781E02D0995EC85FD85DB
:1026800086818F738683EC85FD8585818F75858333
:102690008B898A8B198ADF91CF910895CF92DF922F
:1026A000EF92FF920F931F93CF93DF93EC016A0198
:1026B0007B01022F8989882339F0E881F98102881A
:1026C000F389E02DCE01099598898091E205892B47
:1026D0008093E2051FB7F89460E070E281EA97E02A
:1026E000A70196010E94FA2269017A018FEFC81AA8
:1026F000D80AE80AF80AF694E794D794C794EC85C8
:10270000FD8586818D7F8683EC85FD858681868328
:10271000198AA09123110A2E000CBB0BA701960168
:102720000E94F22220E034E040E050E00E94C82203
:10273000EC85FD85C20ED31EE41EF51EC086D18633
:10274000EC85FD850783EC85FD858681806C86831D
:10275000EC85FD858581806885838E8562E070E0EB
:102760000E9400108F8561E070E00E94F7108F8555
:1027700061E070E00E9400101FBFDF91CF911F91B8
:102780000F91FF90EF90DF90CF900895CF93DF935C
:10279000FC0194898589C485D585981306C08D81EF
:1027A0008F7D8D83DF91CF910895A589AE0FBF2FC7
:1027B000B11DA75ABF4F2C91858990E001968F7368
:1027C0009927858B80E48C83A485B58512962C93FC
:1027D000948985899813E6CFA485B58515968C9143
:1027E00015978F7D15968C9387898823D9F2808DD4
:1027F00080931301178AD6CFDC011C96ED91FC91D2
:102800000FB607FE03C0258125FD04C0248125FDE8
:102810000C94C6130895EF92FF920F931F93CF93DA
:10282000DF93EC0181E0898B9C898D8998131CC012
:10283000AC85BD8514968C91149785FF15C01296B2
:102840006C93AC85BD8580E414968C93EC85FD85F6
:1028500085818F7D858381E090E0DF91CF911F910D
:102860000F91FF90EF9008958091110180FF08C0B3
:1028700080911301888F8E898093130181E08F8B63
:10288000F62E0C8910E00F5F1F4F0F731127E02EFB
:102890008D898E1104C0CE010E94FC13F9CFEC8902
:1028A000EC0FFD2FF11DE75AFF4FF0820C8BEC85EA
:1028B000FD8585818062CECFCF93DF93FC01218996
:1028C0002223C9F0EC018091110180FF08C08091A2
:1028D0001301808F86898093130181E0878BEC85BB
:1028E000FD85858185FD03C0848186FD04C0CE0100
:1028F0000E94FC13F4CFDF91CF91089581E00895F9
:10290000DC01ED91FC910088F189E02D23E030E0BD
:102910000994CF92DF92EF92FF920F93FC01C12CAA
:10292000B9E0DB2EBDE3EB2EF12CC082D182E28236
:10293000F3821482158281E090E086839783C090B1
:102940000228D0900328E0900428F0900528F694FF
:10295000E794D794C79490E04C155D056E057F050C
:1029600040F4F694E794D794C7949F5F9630A1F70C
:1029700097E004600187892F8095A82FA170B0E0AF
:1029800084E0AA0FBB1F8A95E1F791629A2B80E041
:10299000232B09F480E4982B90870F91FF90EF9000
:1029A000DF90CF9008950F931F93CF93DF93CDB710
:1029B000DEB72A97CDBFDEBF8C01FC018781811174
:1029C0000CC010861186128613861486158616860C
:1029D0001786108A118A81E087838091E305F801C8
:1029E0009681892B8093E30561E070E083810E94EA
:1029F000001061E070E0F80184810E940010809175
:102A0000C10884608093C1088091C008816280936E
:102A1000C0084091FB295091FC296091FD297091DB
:102A2000FE290091FF292091012A3091022ACE012E
:102A300001960E94891499858A859093C008809395
:102A4000C1082A96CDBFDEBFDF91CF911F910F91B4
:102A500008955F926F927F928F929F92AF92BF92F2
:102A6000CF92DF92EF92FF920F931F93CF93DF935A
:102A7000CDB7DEB76297CDBFDEBF3C010B871C87A9
:102A80002D873E87042F4F87588B698B7A8B298936
:102A90003A894B855C856D857E85CE0101960E94C5
:102AA000891459841A85D30118968C91882319F0BA
:102AB00081FF18C0F8945092C0081093C108629624
:102AC000CDBFDEBFDF91CF911F910F91FF90EF90AF
:102AD000DF90CF90BF90AF909F908F907F906F903E
:102AE0005F90089580FFE7CFF30182849384A484EC
:102AF000B584C12CD12C7601B0E09401A501B601BA
:102B0000C701A0E00E945C23A9F1217030E040E001
:102B100050E060E070E080E090E00E945C23E9F02B
:102B200090E080E0B03370F48B2F86958695869583
:102B3000F0E28F9FC0011124805F9B4F2B2F2770E5
:102B4000820F911DFC01408193012B0F311DF90172
:102B5000428BFC012081287F20839401A501B601CE
:102B6000C70101E00E94412349015A016B017C0128
:102B7000BF5FC3CFD3011E968D909D90AD90BC904A
:102B80005197C12CD12C7601B0E29401A501B60178
:102B9000C701A0E00E945C2309F48DCF217030E0D2
:102BA00040E050E060E070E080E090E00E945C2354
:102BB000E9F090E080E0B03370F48B2F8695869535
:102BC0008695E0E28E9FC0011124805F9B4F2B2FE2
:102BD0002770820F911DFC01408193012B0F311D45
:102BE000F901428BFC012081287F20839401A501FB
:102BF000B601C70101E00E94412349015A016B015E
:102C00007C01BF5FC2CF8F929F92AF92BF92EF9233
:102C1000FF920F931F93CF93DF93CDB7DEB7A197AA
:102C2000CDBFDEBF7C01FA01CB0119A2223008F42E
:102C30002AE08E010F5D1F4F822E912CB12CA12C0A
:102C4000BF01A50194010E94FA22F901CA016A306C
:102C50005CF5605DD8016E938D01232B242B252B11
:102C600079F790E080E0109789F0FD010190002055
:102C7000E9F73197AF014A1B5B0BD701ED91FC914E
:102C80000280F381E02DB801C7010995A196CDBF5F
:102C9000DEBFDF91CF911F910F91FF90EF90BF901A
:102CA000AF909F908F900895695CD4CFAC0170E095
:102CB00060E02AE08DE19AE20C940316CF92DF9255
:102CC000EF92FF921F93CF93DF936C017B014CEC4B
:102CD0005AE860E081E29AE20E94300C4DED5AE839
:102CE00062E081E29AE20E94300CCDE1DAE216E085
:102CF00018AF82E089AFC6010E9456164EEE5AE820
:102D000064E081E29AE20E94300C81E0898F18AF82
:102D100084E089AFC7010E945616198E4FEF5AE81A
:102D200066E081E29AE2DF91CF911F91FF90EF90F0
:102D3000DF90CF900C94300CCF92DF92EF92FF9205
:102D40001F93CF93DF936C017B014CEC5AE860E05A
:102D500081E29AE20E94300C4DED5AE862E081E295
:102D60009AE20E94300CCDE1DAE281E0898F16E030
:102D700018AF82E089AFC6010E945616198E4EEE3A
:102D80005AE864E081E29AE20E94300C18AF84E0D5
:102D900089AFC7010E9456164FEF5AE866E081E2FC
:102DA0009AE2DF91CF911F91FF90EF90DF90CF904B
:102DB0000C94300CCF92DF92EF92FF920F931F93FF
:102DC000CF93DF938C017B016A0140E15BE860E017
:102DD00081E29AE20E94300C41E25BE862E081E22B
:102DE0009AE20E94300CCDE1DAE281E0898F8CE03A
:102DF00088AF82E089AFC8010E945616198E42E35F
:102E00005BE864E081E29AE20E94300C18AE14E0C4
:102E100019AFC6010E9456168BE088AF19AFC701E3
:102E20000E94561643E45BE866E081E29AE2DF9195
:102E3000CF911F910F91FF90EF90DF90CF900C9466
:102E4000300C8F929F92AF92BF92CF92DF92EF920F
:102E5000FF921F93CF93DF93CDB7DEB72897CDBFF7
:102E6000DEBF182F662349F0CE01019628E0FC0151
:102E700011922A95E9F70E9489071A3009F4CCC00B
:102E800098F5123009F481C0133009F4ADC0113047
:102E900009F0F5C0E090152AF090162A40E15BE8B1
:102EA00060E081E29AE20E94300C41E25BE862E07D
:102EB00081E29AE20E94300C8CE08093552A82E0F5
:102EC0008093562AC7010E94561644E55BE864E0E9
:102ED00081E29AE20E94300C45E65BE866E081E21E
:102EE0009AE20E94300CA6C0123D09F4B2C01C3D0B
:102EF00009F4BAC0143109F0C2C0C090172AD090AA
:102F0000182AE0901B2AF0901C2AA090132AB09057
:102F1000142A8090112A9090122A46E75BE860E01C
:102F200081E29AE20E94300C47E85BE862E081E2CD
:102F30009AE20E94300C1092552A12E01093562A01
:102F4000C4010E94561687E08093552A1093562A92
:102F5000C5010E94561642E35BE864E081E29AE212
:102F60000E94300C1092552A14E01093562AC60184
:102F70000E9456168BE08093552A1093562AC7015B
:102F80000E94561643E45BE8A9CFE090132AF09024
:102F9000142AC090112AD090122A46E75BE860E01C
:102FA00081E29AE20E94300C47E85BE862E081E24D
:102FB0009AE20E94300C1092552A1093562AC601AC
:102FC0000E94561687E08093552A1093562AC7010F
:102FD0000E94561644E55BE864E081E29AE20E94B2
:102FE000300C48E95BE87ACF49EA5BE860E081E2CF
:102FF0009AE20E94300C4AEB5BE862E081E29AE2DE
:103000000E94300C4BEC5BE864E081E29AE20E94A3
:10301000300C4FEF5AE862CF4091172A5091182A8E
:1030200060911B2A70911C2A8091152A9091162A72
:103030000E94DA162896CDBFDEBFDF91CF911F9197
:10304000FF90EF90DF90CF90BF90AF909F908F90C8
:1030500008956091132A7091142A8091112A9091F9
:10306000122A0E949C16E6CF6091132A7091142AAE
:103070008091112A9091122A0E945E16DBCF4CEDAE
:103080005BE860E02CCF8F929F92AF92BF92CF927D
:10309000DF92EF92FF920F931F93CF93DF937C0108
:1030A000EB016C0182E0C80ED11C4701E5E08E0EF9
:1030B000911C10E000E0F60141916F0150E070E0DA
:1030C00060E02AE0CE010E9403165C01E881F981EC
:1030D0000190F081E02D6EE2CE0109958A0D9B1DD5
:1030E000080F191FC814D90431F7F701458150E0C2
:1030F00070E060E02AE0CE010E940316800F911F6D
:10310000DF91CF911F910F91FF90EF90DF90CF90C3
:10311000BF90AF909F908F9008951F920F920FB61F
:103120000F9211242F933F934F935F936F937F934D
:103130008F939F93AF93BF93CF93EF93FF93C091E0
:10314000AB08C2FF0AC01092CE291092CD2910926E
:10315000CC2984E00E94B30C14C0C6FF2FC080911C
:10316000CB29813051F48091CE29E091C929F09189
:10317000CA2990E009951092CB29C0FF14C00E9483
:10318000C30CFF91EF91CF91BF91AF919F918F9120
:103190007F916F915F914F913F912F910F900FBE53
:1031A0000F901F90189580E48093AB0881E00E94F7
:1031B000B30C8091AB0885FFE4CFE1CFC7FF5CC0C3
:1031C000C3FF08C01092CE291092CD291092CC29AD
:1031D00083E0C0CF8091A90880668093A908809180
:1031E000AB0881FF2CC08091CD29882349F08091C4
:1031F000AB0884FF05C082E08093AA0881E0AACFD3
:103200009091CD298091CC299817A8F4E091CD29EF
:103210008091C4299091C529E80FF92FF11D808173
:103220008093AD088091CD298F5F8093CD2983E075
:103230008093AA08A6CF82E08093AA088BCF9091B2
:10324000CE298091C829981790F48091AD08E0911B
:10325000CE292091C6293091C729E20FF32FF11D05
:1032600080838091CE298F5F8093CE29E0CF86E046
:103270008093AA0882E06ECF85E06CCF1F920F92F8
:103280000FB60F9211242F933F938F939F93EF9339
:10329000FF938091A508982F9C70E1F08091A5087C
:1032A00094E082FF93E09093D9298093A50881E070
:1032B00090E08093CF299093D0291092DA29FF9142
:1032C000EF919F918F913F912F910F900FBE0F9093
:1032D0001F90189586FF4EC02091D6299091D52930
:1032E0008091A50884FF15C08091D229882379F0A8
:1032F00083E08093A40885E08093D9291092DA298D
:1033000081E090E08093CF299093D029D8CF81E0BD
:10331000F0CF8091D429821790F4E091D429809144
:10332000D7299091D829E80FF92FF11D808180933A
:10333000A8088091D4298F5F8093D429C0CF809131
:10334000D329891760F484E090E08093CF2990938B
:10335000D0298091D12981608093A708B0CF809136
:10336000D229882329F083E08093A40881E0C4CF88
:1033700081E0FACF87FF40C09091D3298091D52971
:103380009817D8F48091A808E091D3292091C229F8
:103390003091C329E20FF32FF11D80838091D3294F
:1033A0008F5F8093D3299091D5298091D329891754
:1033B000D8F482E08093A40882CF8091D229882318
:1033C00089F087E08093A40882E08093D929109245
:1033D000DA2981E090E08093CF299093D029109250
:1033E000D5296DCF85E0EECF8091D229882311F0C9
:1033F00087E0BACF85E0B8CF86E07ECF1F920F92EC
:103400000FB60F9211242F933F934F935F936F93B7
:103410007F938F939F93AF93BF934091A428509134
:10342000A5286091A6287091A7288091A228909144
:10343000A3282091A0283091A128420F531F611D7D
:10344000711D20919E2830919F28820F931F883EE6
:1034500023E0920730F0885E93404F5F5F4F6F4FDD
:103460007F4F8093A2289093A3284093A428509341
:10347000A5286093A6287093A7288091AC289091E6
:10348000AD28A091AE28B091AF280196A11DB11D25
:103490008093AC289093AD28A093AE28B093AF282A
:1034A00081E08093B60ABF91AF919F918F917F91F8
:1034B0006F915F914F913F912F910F900FBE0F90A1
:1034C0001F9018951F920F920FB60F9211242F93F1
:1034D0003F934F935F936F937F938F939F93AF939C
:1034E000BF93EF93FF9385E00E94A912FF91EF91A4
:1034F000BF91AF919F918F917F916F915F914F910C
:103500003F912F910F900FBE0F901F9018951F9213
:103510000F920FB60F9211242F933F934F935F9307
:103520006F937F938F939F93AF93BF93EF93FF938B
:1035300084E00E94A912FF91EF91BF91AF919F91FA
:103540008F917F916F915F914F913F912F910F904C
:103550000FBE0F901F9018951F920F920FB60F92EB
:1035600011242F933F934F935F936F937F938F9388
:103570009F93AF93BF93EF93FF9383E00E94A912B1
:10358000FF91EF91BF91AF919F918F917F916F913B
:103590005F914F913F912F910F900FBE0F901F9011
:1035A00018951F920F920FB60F9211242F933F93ED
:1035B0004F935F936F937F938F939F93AF93BF933B
:1035C000EF93FF9382E00E94A912FF91EF91BF91C8
:1035D000AF919F918F917F916F915F914F913F91AB
:1035E0002F910F900FBE0F901F9018951F920F9262
:1035F0000FB60F9211242F933F934F935F936F93C6
:103600007F938F939F93AF93BF93EF93FF9381E04B
:103610000E94A912FF91EF91BF91AF919F918F915D
:103620007F916F915F914F913F912F910F900FBEBE
:103630000F901F9018951F920F920FB60F921124A2
:103640002F933F934F935F936F937F938F939F93AA
:10365000AF93BF93EF93FF9380E00E94A912FF9175
:10366000EF91BF91AF919F918F917F916F915F91FA
:103670004F913F912F910F900FBE0F901F90189573
:103680001F920F920FB60F9211242F933F934F93D7
:103690005F936F937F938F939F93AF93BF93EF93BA
:1036A000FF9387E59AE20E94C613FF91EF91BF91C5
:1036B000AF919F918F917F916F915F914F913F91CA
:1036C0002F910F900FBE0F901F9018951F920F9281
:1036D0000FB60F9211242F933F934F935F936F93E5
:1036E0007F938F939F93AF93BF93EF93FF9387E560
:1036F0009AE20E94DF12FF91EF91BF91AF919F91EB
:103700008F917F916F915F914F913F912F910F908A
:103710000FBE0F901F9018951F920F920FB60F9229
:1037200011242F933F934F935F936F937F938F93C6
:103730009F93AF93BF93EF93FF9380EF9AE20E9422
:10374000C613FF91EF91BF91AF919F918F917F91A0
:103750006F915F914F913F912F910F900FBE0F90FE
:103760001F9018951F920F920FB60F9211242F934E
:103770003F934F935F936F937F938F939F93AF93F9
:10378000BF93EF93FF9380EF9AE20E94DF12FF91C5
:10379000EF91BF91AF919F918F917F916F915F91C9
:1037A0004F913F912F910F900FBE0F901F90189542
:1037B0001F920F920FB60F9211248F939F93AF9386
:1037C000BF9380912B2890912C28A0912D28B09107
:1037D0002E28892B8A2B8B2B79F180912A2880B96E
:1037E00080912B2890912C28A0912D28B0912E28E3
:1037F000181619061A061B069CF480912B28909126
:103800002C28A0912D28B0912E280197A109B1094B
:1038100080932B2890932C28A0932D28B0932E28AA
:1038200081E08093960ABF91AF919F918F910F9005
:103830000FBE0F901F90189580912B2890912C28E7
:10384000A0912D28B0912E28892B8A2B8B2B41F704
:103850001092950A1092900AE3CFCF9380E099E0FE
:10386000ADE3B0E08093FB299093FC29A093FD2960
:10387000B093FE291092FF291092002A81E090E077
:103880008093012A9093022A1092052A1092062A08
:1038900088EE93E0A0E0B0E08093072A9093082A96
:1038A000A093092AB0930A2A82E89AE88093032A0F
:1038B0009093042A10921F2A1092202A1092552ABF
:1038C0001092562A8AEA9AE880931D2A90931E2A1B
:1038D0001092212A1092222A1092362A1092392A06
:1038E00010922D2A10922E2A10922F2A1092302AEE
:1038F0008FEF8093372A80933B2AEFE3FAE285E546
:103900009AE2CFEFC1938E179F07E1F788EE99E017
:103910008093252A9093262A8DED9AE08093272A7A
:103920009093282A8CE390E18093292A90932A2A65
:1039300086EF91E180932B2A90932C2A30E020E0AF
:1039400040E069E081E29AE20E94E809C0934A2AD5
:10395000C0934B2AC0934C2A10920F2A1092102A1F
:1039600088E790E08093112A9093122A88E290E0F1
:103970008093132A9093142A82E390E08093152A6F
:103980009093162A10921B2A10921C2A1092592AE0
:1039900010925A2A48EE53E060E070E040935B2AB0
:1039A00050935C2A60935D2A70935E2A86EB9AE8B6
:1039B0008093572A9093582A20E238E02093632A74
:1039C0003093642A1092652A21E02093662A24E02D
:1039D0002093672A1092692A10926A2A10926B2A01
:1039E00010926C2A2BE120936D2A10926E2A10926D
:1039F0006F2A1092F22A1092F32A4093F42A5093DD
:103A0000F52A6093F62A7093F72A8093F02A909310
:103A1000F12A80E698E08093FC2A9093FD2A88E1C1
:103A20008093FE2A89E18093FF2A80E48093002B13
:103A30001092022B1092032B1092042B1092052B44
:103A400086E28093062B1092072B1092082BCF91C1
:103A50000895CF93DF93CDB7DEB72897CDBFDEBFF4
:103A600088ED90E084BF9093610080E094E2A4EF41
:103A7000B0E08093022890930328A0930428B09389
:103A800005288091020686608093020680910006D8
:103A9000816080930006809102068F7C80930206ED
:103AA0008091A0008F788093A000809102068061B1
:103AB000809302061092E20581E08093E40583E0A2
:103AC0008093010A8FEF90E08093260A9093270A53
:103AD00080E890E08093380A9093390A80933A0AFC
:103AE00090933B0A80933C0A90933D0A8BE080932D
:103AF000000A8091E50581608093E5058091E505E8
:103B000082608093E505E0E8FAE037E02FEF90E887
:103B100085E031832487958780837096E03C4AE076
:103B2000F407B9F780E094E08093AA289093AB283B
:103B30008091AA289091AB282FEF30E0B9010E9424
:103B40002B236093A8287093A9288091AA2890918C
:103B5000AB28E8EEF3E0BF010E942B236093A0287E
:103B60007093A1288091AA289091AB28BF010E9450
:103B70002B2380939E2890939F282093BC0A3093F8
:103B8000BD0A8091B50A81608093B50A84E0809374
:103B9000B00A8091B00A81608093B00A789440E8BE
:103BA00055E260E070E080EF9AE20E94801470E0DD
:103BB00060E086E00E94CA0F70E060E082E00E9450
:103BC000CA0F70E060E083E00E94CA0F70E060E01E
:103BD00084E00E94CA0F61E070E08DE00E94CA0F8D
:103BE00061E070E089E00E94CA0F61E070E08AE065
:103BF0000E94CA0F61E070E08DE00E94B01081E089
:103C00008093FA2980E28093F52940E260E00E94E7
:103C1000150E4FEF61E080E20E94150E40E062E079
:103C200080E20E94150E4FE063E080E20E94150ED4
:103C300040E164E080E20E94150E4FE165E080E221
:103C40000E94150E40E066E080E20E94150E40E002
:103C500068E080E20E94150E40E069E080E20E9488
:103C6000150E40E06AE080E20E94150E40E56BE030
:103C700080E20E94150E4AE06CE080E20E94150E80
:103C800040E06DE080E20E94150E40E06EE080E2D0
:103C90000E94150E41E06FE080E20E94150E45E0A3
:103CA00060E180E20E94150E45E061E180E20E9441
:103CB000150E4FEF62E180E20E94150E4FEF63E1B7
:103CC00080E20E94150E4FEF64E180E20E94150E23
:103CD0004FEF65E180E20E94150E4DE466E180E25F
:103CE0000E94150E41E067E180E20E94150E4DE44E
:103CF00068E180E20E94150E41E069E180E20E94E5
:103D0000150E40E06AE180E20E94150E42EE6BE182
:103D100080E20E94150E44EE6CE180E20E94150ED6
:103D200048EE6DE180E20E94150E40EE6EE180E209
:103D30000E94150EE091252AF091262A30E020E01D
:103D400040E06AE081E29AE20995CE01019628E01E
:103D5000FC0111922A95E9F70E948907E091252A32
:103D6000F091262A30E020E040E06BE081E29AE228
:103D70000995E091252AF091262A30E020E041E0E3
:103D80006DE081E29AE2099580EA90E08093312A21
:103D90009093322A4AEE5BE860E081E29AE20E9468
:103DA000300C4BEF5BE862E081E29AE20E94300C5B
:103DB0004AEE5BE864E081E29AE20E94300C4CE05B
:103DC0005CE866E081E29AE20E94300C68EE73E003
:103DD00080E090E00E94C61143EC63E08091F529F9
:103DE0000E94150E40E56BE08091F5290E94150EAA
:103DF00068EE73E080E090E00E94C61170E060E041
:103E00008DE00E94B01061E070E089E00E94B01087
:103E100061E070E08AE00E94B01050E0C52E50E0F2
:103E2000D52EFF24F39462EDB62E7CEDA72EEAE0AA
:103E30009E2EF4E18F2E4CE3E42E86E00E94721158
:103E4000882309F48CC08091902881110BC0809147
:103E5000912890919228019680939128909392288E
:103E6000F0929028609191287091922860939C28FC
:103E700070939D2890E080E00E94A92120E030E02E
:103E800048E251E40E94DB230E94542460931B2AE1
:103E900070931C2A83E00E947211782E84E00E94A5
:103EA00072118C0182E00E947211000F111F880FA5
:103EB000991F880F991F082B07299091002880E0EF
:103EC00090FD06C0802F817000FF02C001FD82E0DE
:103ED000202F2370233009F045C0292F2370233071
:103EE00009F040C0202F247092FFFDC191E0211104
:103EF00090E0292FF4E02F9F90011124822B09F4E8
:103F0000F7C1982F9370913089F1923069F19FEF4A
:103F10008C70843069F18830A1F1033021F48091F4
:103F20008F288823B9F100930028809101289F3FB2
:103F300009F44DC0913009F47BC1933009F4E3C119
:103F4000911145C08A3009F43BC108F018C1813095
:103F500009F432C18230D9F5F092012838C01092AC
:103F6000902880CF20E0C6CF90E0D2CF91E0D0CF94
:103F700010929A2810929B28033009F0BDC192E05C
:103F8000CECF80918F28882309F4DAC110928F2830
:103F9000033049F620919A2830919B28283E3340DF
:103FA00014F2F0928F2810929A2810929B2883E0A6
:103FB00080930028809101288A3009F4D9C008F044
:103FC000D0C0823009F484C1833009F484C1809167
:103FD000012890919928981739F061E00E942117E3
:103FE000809101288093992820911B2A30911C2AC6
:103FF0008091112A9091122A2817390768F0809130
:104000000128843149F40E9467114DE15CE866E0C3
:1040100081E29AE20E94300C809197289091982832
:10402000883E93400CF44FC0809101288A3011F0F3
:10403000843149F460E00E9421178091172A909101
:10404000182A892B21F01092952810929628809199
:104050000128843171F46091132A7091142A50E080
:1040600040E08091172A9091182A0E94F00E0E9439
:10407000FC1000919C2810919D288091932890918C
:1040800094289801281B390BE29EB001E39E700D25
:10409000112490E080E00E94A92120E030E048E275
:1040A00051E40E94DB230E9488240E9454246093E0
:1040B000172A7093182A009393281093942810922B
:1040C0009728109298288091952890919628883B5F
:1040D0009B40FCF080910128843111F40E9467110B
:1040E00083E08093012870E060E089E00E94B010D6
:1040F00061E070E08AE00E94B01046E050E06EE2BD
:104100007CE880EF9AE20E94781210929528109233
:1041100096288091972890919828019680939728C7
:104120009093982880919528909196280196809355
:1041300095289093962880919A2890919B28019693
:1041400080939A2890939B2861E070E080E090E053
:104150000E94C611C114D10409F46FCE0E94000060
:104160006ACE823D49F18C3D39F1843109F02FCF7F
:1041700010929128109292281092902828CF823D78
:1041800009F43FC08C3D09F022CF8091132A909111
:10419000142A8C34910528F405968093132A909361
:1041A000142A6091132A7091142A8091112A9091F7
:1041B000122A0E945E160BCF82E08093012807CF5F
:1041C0008091152A9091162A8036910528F405963B
:1041D0008093152A9093162A8091152A9091162A79
:1041E0000E94FC104091172A5091182A60911B2AB6
:1041F00070911C2A8091152A9091162A0E94DA1635
:10420000E6CE8091112A9091122A863F910528F4DA
:1042100005968093112A9093122A6091132A709127
:10422000142A8091112A9091122A0E949C16CFCEB6
:104230008A3089F008F48BCE823DB9F08C3D09F0CC
:10424000C6CE8091132A9091142A8F30910508F4DC
:10425000A8CF0597A2CF8091152A9091162A853074
:10426000910508F4B9CF0597B3CF8091112A9091A9
:10427000122A8530910588F20597CBCF823D29F12E
:104280008C3D31F1843109F0A2CE82E08093012887
:1042900019C090920128109293281092942810929D
:1042A0009C2810929D28109291281092922810928A
:1042B00090288091152A9091162A0E94FC1087CE92
:1042C000F09201280E94671182CEA09201287FCE31
:1042D000B09201287CCEF092012861E070E089E084
:1042E0000E94B010EFCF222309F404CE22E002CEC8
:1042F000033011F49FEF13CE0093002868CE009393
:104300000028809101288A30D9F208F0B7CF813097
:1043100009F4BFCF823009F05ACE80920128109262
:1043200093281092942810929C2810929D2841E086
:1043300050E070E060E090E080E00E94F00E18CF66
:104340000330E9F693E026CE0E94E62108F481E0EE
:104350000895E89409C097FB3EF490958095709578
:1043600061957F4F8F4F9F4F9923A9F0F92F96E9C1
:10437000BB279395F695879577956795B795F11136
:10438000F8CFFAF4BB0F11F460FF1BC06F5F7F4FD3
:104390008F4F9F4F16C0882311F096E911C07723E5
:1043A00021F09EE8872F762F05C0662371F096E8EE
:1043B000862F70E060E02AF09A95660F771F881FBD
:1043C000DAF7880F9695879597F90895990F000861
:1043D000550FAA0BE0E8FEEF16161706E807F907D7
:1043E000C0F012161306E407F50798F0621B730B72
:1043F000840B950B39F40A2661F0232B242B252BF3
:1044000021F408950A2609F4A140A6958FEF811D95
:10441000811D08950E941D220C948E220E948022EC
:1044200038F00E94872220F0952311F00C94772217
:104430000C947D2211240C94C2220E949F2270F3BE
:10444000959FC1F3950F50E0551F629FF001729F39
:10445000BB27F00DB11D639FAA27F00DB11DAA1F48
:10446000649F6627B00DA11D661F829F2227B00D95
:10447000A11D621F739FB00DA11D621F839FA00D20
:10448000611D221F749F3327A00D611D231F849F70
:10449000600D211D822F762F6A2F11249F575040C7
:1044A0009AF0F1F088234AF0EE0FFF1FBB1F661F42
:1044B000771F881F91505040A9F79E3F510580F00B
:1044C0000C9477220C94C2225F3FE4F3983ED4F31D
:1044D000869577956795B795F795E7959F5FC1F7AF
:1044E000FE2B880F911D9695879597F9089597F95A
:1044F0009F6780E870E060E008959FEF80EC08958A
:1045000000240A94161617061806090608950024B2
:104510000A9412161306140605060895092E03942C
:10452000000C11F4882352F0BB0F40F4BF2B11F4A0
:1045300060FF04C06F5F7F4F8F4F9F4F089557FDFF
:104540009058440F551F59F05F3F71F04795880F01
:1045500097FB991F61F09F3F79F087950895121698
:1045600013061406551FF2CF4695F1DF08C0161644
:1045700017061806991FF1CF8695710561050894F5
:104580000895E894BB2766277727CB0197F908950C
:10459000052E97FB1EF400940E94DF2257FD07D0E2
:1045A0000E94FA2207FC03D04EF40C94DF225095AF
:1045B0004095309521953F4F4F4F5F4F089590950F
:1045C0008095709561957F4F8F4F9F4F08950E9402
:1045D0001C23A59F900DB49F900DA49F800D911D4D
:1045E00011240895B7FF0C94E7220E94E722821B52
:1045F000930B0895A1E21A2EAA1BBB1BFD010DC04F
:10460000AA1FBB1FEE1FFF1FA217B307E407F50782
:1046100020F0A21BB30BE40BF50B661F771F881F5E
:10462000991F1A9469F760957095809590959B01F4
:10463000AC01BD01CF010895A29FB001B39FC0019D
:10464000A39F700D811D1124911DB29F700D811DBE
:104650001124911D0895AA1BBB1B51E107C0AA1F7D
:10466000BB1FA617B70710F0A61BB70B881F991F13
:104670005A95A9F780959095BC01CD01089597FDB5
:104680001094002E083098F00850232F342F452F17
:10469000562F672F782F892F912DF4CF159497954A
:1046A00087957795679557954795379527950A95F7
:1046B000AAF71124002D08950024A7FD00942A17BD
:1046C000300540055005600570058005900508958A
:1046D000EE0FFF1F0590F491E02D09945058BB2771
:1046E000AA270E9486230C948E220E94802238F0F2
:1046F0000E94872220F039F49F3F19F426F40C948D
:104700007D220EF4E095E7FB0C947722E92F0E94BE
:104710009F2258F3BA17620773078407950720F0A2
:1047200079F4A6F50C94C1220EF4E0950B2EBA2F65
:10473000A02D0B01B90190010C01CA01A0011124A7
:10474000FF27591B99F0593F50F4503E68F11A1653
:10475000F040A22F232F342F4427585FF3CF4695E4
:1047600037952795A795F0405395C9F77EF41F1606
:10477000BA0B620B730B840BBAF09150A1F0FF0FD0
:10478000BB1F661F771F881FC2F70EC0BA0F621FBC
:10479000731F841F48F4879577956795B795F795AC
:1047A0009E3F08F0B0CF9395880F08F09927EE0F41
:1047B0009795879508950E94EF230C948E220E946E
:1047C000872258F00E94802240F029F45F3F29F0B0
:1047D0000C94772251110C94C2220C947D220E94D9
:1047E0009F2268F39923B1F3552391F3951B550B41
:1047F000BB27AA2762177307840738F09F5F5F4FB4
:10480000220F331F441FAA1FA9F335D00E2E3AF0F2
:10481000E0E832D091505040E695001CCAF72BD00A
:10482000FE2F29D0660F771F881FBB1F261737075B
:104830004807AB07B0E809F0BB0B802DBF01FF278D
:1048400093585F4F3AF09E3F510578F00C947722D1
:104850000C94C2225F3FE4F3983ED4F3869577959B
:104860006795B795F7959F5FC9F7880F911D969546
:10487000879597F90895E1E0660F771F881FBB1FA2
:10488000621773078407BA0720F0621B730B840B4F
:10489000BA0BEE1F88F7E09508950E94542468949F
:1048A000B1110C94C22208950E94A72288F09F574C
:1048B00098F0B92F9927B751B0F0E1F0660F771F44
:1048C000881F991F1AF0BA95C9F714C0B13091F03A
:1048D0000E94C122B1E008950C94C122672F782F65
:1048E0008827B85F39F0B93FCCF3869577956795FF
:1048F000B395D9F73EF490958095709561957F4F6B
:104900008F4F9F4F08950E94E62108F48FEF08957E
:104910000E94A722E8F09E37E8F09639B8F49E3856
:1049200048F4672F782F8827985FF9CF8695779579
:10493000679593959539D0F3B62FB1706B0F711DB4
:10494000811D20F487957795679593950C94AC24F9
:104950000C94C7240C94C222882371F4772321F08D
:104960009850872B762F07C0662311F499270DC026
:104970009051862B70E060E02AF09A95660F771FC1
:10498000881FDAF7880F9695879597F908959F3FC6
:1049900031F0915020F4879577956795B795880FFA
:0E49A000911D9695879597F90895F894FFCF8D
:1049AE0000000003000102000001010000000000F1
:1049BE0000000000000000000000050400050602D3
:1049CE0004010300010001020302010002030405B9
:1049DE0002030504020200050201050004010104A0
:1049EE000404030303030505030300000101201063
:1049FE000120400410020801020102040804020111
:104A0E0004081020040820101815A015C019FF184E
:104A1E0015A115C819FF1815AE19FF1815AF19FFF6
:104A2E001815AE15D5168015A8163F15D3160015F8
:104A3E0040158D16141520160015A115C815DA1679
:104A4E0012158116CF15D916F115DB1640152E1538
:104A5E00A415A619FF0001140A6464323200127AFA
:104A6E00000004289610080000800040008120807D
:104A7E0000000000CC0DA70DA6127D0DA00D8D0D12
:104A8E007E0D0510AB0E9E0E4D0D0E0EEF0DE70DAD
:104A9E00750E6D0E560D510D00000000370CA20F55
:104AAE00A612A512000000000B147812F8125C1466
:104ABE00291307131B1380144E1335137E14202055
:104ACE004155544F20434F4E464947202020002049
:104ADE002020202020202020206D6C20202020004F
:104AEE00202020202020202020206D6C2F6D696E2C
:104AFE00006C6F6E672070757368207265747572C6
:104B0E006E0020204D414E55414C20204D4F4445C6
:104B1E002020004D6F746F722073706565642020C5
:104B2E00202025002020206D6C2F6D696E20202006
:104B3E0020206D6C0020636C69636B20666F7220A1
:104B4E0073746F702000202020202D53544F50502E
:104B5E0045442D202020002020636C69636B206665
:104B6E006F722072756E2000202020204155544F08
:104B7E00204D4F4445202020002020206D6C202009
:104B8E002020206D6C2F6D696E006C6F6E6720702B
:104B9E0075736820636F6E66696700202020202081
:104BAE00204552524F5220202020200020204E6FB0
:104BBE00206C6971756964206F72202000627562C5
:104BCE00626C657320696E20747562657300455260
:104BDE00524F52204D454E55204C30002D2D2D2D2F
:104BEE002D2D2D2D2D2D2D2D2D2D2D2D00504552B4
:104BFE00495354414C5449432050554D5000205276
:104C0E0054482031372E30362E32303230200020AC
:104C1E0020454E442050554D50494E4720202000EF
:074C2E004552524F522000D5
:064C350001010024F4005F
:00000001FF
